{
  "_format": "hh-sol-artifact-1",
  "contractName": "KNOV1",
  "sourceName": "contracts/KNOV1.sol",
  "abi": [
    {
      "inputs": [],
      "stateMutability": "nonpayable",
      "type": "constructor"
    },
    {
      "inputs": [
        {
          "internalType": "uint256",
          "name": "aid",
          "type": "uint256"
        }
      ],
      "name": "getAnswer",
      "outputs": [
        {
          "components": [
            {
              "internalType": "address",
              "name": "author",
              "type": "address"
            },
            {
              "internalType": "uint256",
              "name": "qid",
              "type": "uint256"
            },
            {
              "internalType": "uint256",
              "name": "aid",
              "type": "uint256"
            },
            {
              "internalType": "string",
              "name": "cid",
              "type": "string"
            }
          ],
          "internalType": "struct KNOV1.Answer",
          "name": "",
          "type": "tuple"
        }
      ],
      "stateMutability": "view",
      "type": "function"
    },
    {
      "inputs": [
        {
          "internalType": "uint256",
          "name": "aid",
          "type": "uint256"
        }
      ],
      "name": "getAnswerCid",
      "outputs": [
        {
          "internalType": "string",
          "name": "",
          "type": "string"
        }
      ],
      "stateMutability": "view",
      "type": "function"
    },
    {
      "inputs": [
        {
          "internalType": "uint256",
          "name": "qid",
          "type": "uint256"
        }
      ],
      "name": "getIsAuthor",
      "outputs": [
        {
          "internalType": "bool",
          "name": "",
          "type": "bool"
        }
      ],
      "stateMutability": "view",
      "type": "function"
    },
    {
      "inputs": [
        {
          "internalType": "address",
          "name": "userAddr",
          "type": "address"
        }
      ],
      "name": "getIsRegistered",
      "outputs": [
        {
          "internalType": "bool",
          "name": "",
          "type": "bool"
        }
      ],
      "stateMutability": "view",
      "type": "function"
    },
    {
      "inputs": [
        {
          "internalType": "uint256",
          "name": "qid",
          "type": "uint256"
        }
      ],
      "name": "getIsSelected",
      "outputs": [
        {
          "internalType": "bool",
          "name": "",
          "type": "bool"
        }
      ],
      "stateMutability": "view",
      "type": "function"
    },
    {
      "inputs": [
        {
          "internalType": "uint256",
          "name": "qid",
          "type": "uint256"
        }
      ],
      "name": "getQuestion",
      "outputs": [
        {
          "components": [
            {
              "internalType": "address",
              "name": "author",
              "type": "address"
            },
            {
              "internalType": "uint256",
              "name": "qid",
              "type": "uint256"
            },
            {
              "internalType": "string",
              "name": "cid",
              "type": "string"
            },
            {
              "internalType": "bool",
              "name": "isSelected",
              "type": "bool"
            },
            {
              "internalType": "uint256",
              "name": "selectedAnswerId",
              "type": "uint256"
            },
            {
              "internalType": "uint256",
              "name": "reward",
              "type": "uint256"
            }
          ],
          "internalType": "struct KNOV1.Question",
          "name": "",
          "type": "tuple"
        }
      ],
      "stateMutability": "view",
      "type": "function"
    },
    {
      "inputs": [
        {
          "internalType": "uint256",
          "name": "qid",
          "type": "uint256"
        }
      ],
      "name": "getQuestionAids",
      "outputs": [
        {
          "internalType": "uint256[]",
          "name": "",
          "type": "uint256[]"
        }
      ],
      "stateMutability": "view",
      "type": "function"
    },
    {
      "inputs": [
        {
          "internalType": "uint256",
          "name": "qid",
          "type": "uint256"
        }
      ],
      "name": "getQuestionCid",
      "outputs": [
        {
          "internalType": "string",
          "name": "",
          "type": "string"
        }
      ],
      "stateMutability": "view",
      "type": "function"
    },
    {
      "inputs": [
        {
          "internalType": "uint256",
          "name": "qid",
          "type": "uint256"
        }
      ],
      "name": "getSelectedAnswerId",
      "outputs": [
        {
          "internalType": "uint256",
          "name": "",
          "type": "uint256"
        }
      ],
      "stateMutability": "view",
      "type": "function"
    },
    {
      "inputs": [],
      "name": "getTotalAnswerNumber",
      "outputs": [
        {
          "internalType": "uint256",
          "name": "",
          "type": "uint256"
        }
      ],
      "stateMutability": "view",
      "type": "function"
    },
    {
      "inputs": [],
      "name": "getTotalQuestionNumber",
      "outputs": [
        {
          "internalType": "uint256",
          "name": "",
          "type": "uint256"
        }
      ],
      "stateMutability": "view",
      "type": "function"
    },
    {
      "inputs": [],
      "name": "getUserAids",
      "outputs": [
        {
          "internalType": "uint256[]",
          "name": "",
          "type": "uint256[]"
        }
      ],
      "stateMutability": "view",
      "type": "function"
    },
    {
      "inputs": [
        {
          "internalType": "address",
          "name": "userAddr",
          "type": "address"
        }
      ],
      "name": "getUserNickname",
      "outputs": [
        {
          "internalType": "string",
          "name": "",
          "type": "string"
        }
      ],
      "stateMutability": "view",
      "type": "function"
    },
    {
      "inputs": [],
      "name": "getUserQids",
      "outputs": [
        {
          "internalType": "uint256[]",
          "name": "",
          "type": "uint256[]"
        }
      ],
      "stateMutability": "view",
      "type": "function"
    },
    {
      "inputs": [
        {
          "internalType": "uint256",
          "name": "qid",
          "type": "uint256"
        },
        {
          "internalType": "string",
          "name": "cid",
          "type": "string"
        }
      ],
      "name": "postAnswer",
      "outputs": [],
      "stateMutability": "nonpayable",
      "type": "function"
    },
    {
      "inputs": [
        {
          "internalType": "string",
          "name": "cid",
          "type": "string"
        }
      ],
      "name": "postQuestion",
      "outputs": [
        {
          "internalType": "bool",
          "name": "",
          "type": "bool"
        }
      ],
      "stateMutability": "nonpayable",
      "type": "function"
    },
    {
      "inputs": [
        {
          "internalType": "string",
          "name": "nickname",
          "type": "string"
        }
      ],
      "name": "registerUser",
      "outputs": [
        {
          "internalType": "bool",
          "name": "",
          "type": "bool"
        }
      ],
      "stateMutability": "nonpayable",
      "type": "function"
    },
    {
      "inputs": [
        {
          "internalType": "uint256",
          "name": "qid",
          "type": "uint256"
        },
        {
          "internalType": "uint256",
          "name": "aid",
          "type": "uint256"
        }
      ],
      "name": "selectAnswer",
      "outputs": [
        {
          "internalType": "bool",
          "name": "",
          "type": "bool"
        }
      ],
      "stateMutability": "nonpayable",
      "type": "function"
    }
  ],
  "bytecode": "0x60a060405234801561001057600080fd5b503373ffffffffffffffffffffffffffffffffffffffff1660808173ffffffffffffffffffffffffffffffffffffffff1681525050608051611f9d61005d60003960005050611f9d6000f3fe608060405234801561001057600080fd5b50600436106101165760003560e01c8063b5611129116100a2578063cbe56e6811610071578063cbe56e6814610353578063d3ccdb2714610383578063db88176f146103a1578063e54f50b5146103d1578063fa2decda146103ef57610116565b8063b5611129146102b9578063b5ab58dc146102e9578063b637fa1814610319578063c921d66c1461033757610116565b80637116cad8116100e95780637116cad8146101db578063858fdec11461020b5780638828fd041461023b578063903aac4c14610259578063a62a68871461028957610116565b806304766a7a1461011b5780630b0402791461014b5780633d9c48931461017b578063704f1b94146101ab575b600080fd5b61013560048036038101906101309190611498565b61041f565b6040516101429190611555565b60405180910390f35b610165600480360381019061016091906115ad565b6105c3565b6040516101729190611555565b60405180910390f35b610195600480360381019061019091906115da565b61066b565b6040516101a29190611635565b60405180910390f35b6101c560048036038101906101c091906116b5565b610854565b6040516101d29190611635565b60405180910390f35b6101f560048036038101906101f091906116b5565b610a27565b6040516102029190611635565b60405180910390f35b610225600480360381019061022091906115ad565b610bf2565b6040516102329190611635565b60405180910390f35b610243610c70565b6040516102509190611711565b60405180910390f35b610273600480360381019061026e91906115ad565b610c79565b6040516102809190611555565b60405180910390f35b6102a3600480360381019061029e91906115ad565b610d21565b6040516102b09190611635565b60405180910390f35b6102d360048036038101906102ce9190611498565b610d4e565b6040516102e09190611635565b60405180910390f35b61030360048036038101906102fe91906115ad565b610da7565b60405161031091906117f7565b60405180910390f35b610321610ed0565b60405161032e9190611711565b60405180910390f35b610351600480360381019061034c9190611819565b610eda565b005b61036d600480360381019061036891906115ad565b6110a1565b60405161037a9190611711565b60405180910390f35b61038b6110c1565b6040516103989190611928565b60405180910390f35b6103bb60048036038101906103b691906115ad565b611156565b6040516103c891906119e2565b60405180910390f35b6103d96112a4565b6040516103e69190611928565b60405180910390f35b610409600480360381019061040491906115ad565b611339565b6040516104169190611928565b60405180910390f35b60606000600260008473ffffffffffffffffffffffffffffffffffffffff1673ffffffffffffffffffffffffffffffffffffffff1681526020019081526020016000206040518060600160405290816000820160009054906101000a900473ffffffffffffffffffffffffffffffffffffffff1673ffffffffffffffffffffffffffffffffffffffff1673ffffffffffffffffffffffffffffffffffffffff1681526020016001820180546104d390611a33565b80601f01602080910402602001604051908101604052809291908181526020018280546104ff90611a33565b801561054c5780601f106105215761010080835404028352916020019161054c565b820191906000526020600020905b81548152906001019060200180831161052f57829003601f168201915b505050505081526020016002820160009054906101000a900460ff161515151581525050905080604001516105b6576040517f08c379a00000000000000000000000000000000000000000000000000000000081526004016105ad90611ab0565b60405180910390fd5b8060200151915050919050565b60606005600083815260200190815260200160002060020180546105e690611a33565b80601f016020809104026020016040519081016040528092919081815260200182805461061290611a33565b801561065f5780601f106106345761010080835404028352916020019161065f565b820191906000526020600020905b81548152906001019060200180831161064257829003601f168201915b50505050509050919050565b60003373ffffffffffffffffffffffffffffffffffffffff166005600085815260200190815260200160002060000160009054906101000a900473ffffffffffffffffffffffffffffffffffffffff1673ffffffffffffffffffffffffffffffffffffffff1614610711576040517f08c379a000000000000000000000000000000000000000000000000000000000815260040161070890611b1c565b60405180910390fd5b6000806006600086815260200190815260200160002080548060200260200160405190810160405280929190818152602001828054801561077157602002820191906000526020600020905b81548152602001906001019080831161075d575b5050505050905060005b81518110156107bd578482828151811061079857610797611b3c565b5b6020026020010151036107aa57600192505b80806107b590611b9a565b91505061077b565b50816107fe576040517f08c379a00000000000000000000000000000000000000000000000000000000081526004016107f590611c2e565b60405180910390fd5b60016005600087815260200190815260200160002060030160006101000a81548160ff02191690831515021790555083600560008781526020019081526020016000206004018190555060019250505092915050565b6000600260003373ffffffffffffffffffffffffffffffffffffffff1673ffffffffffffffffffffffffffffffffffffffff16815260200190815260200160002060020160009054906101000a900460ff16156108e6576040517f08c379a00000000000000000000000000000000000000000000000000000000081526004016108dd90611c9a565b60405180910390fd5b60405180606001604052803373ffffffffffffffffffffffffffffffffffffffff16815260200184848080601f016020809104026020016040519081016040528093929190818152602001838380828437600081840152601f19601f82011690508083019250505050505050815260200160011515815250600260003373ffffffffffffffffffffffffffffffffffffffff1673ffffffffffffffffffffffffffffffffffffffff16815260200190815260200160002060008201518160000160006101000a81548173ffffffffffffffffffffffffffffffffffffffff021916908373ffffffffffffffffffffffffffffffffffffffff16021790555060208201518160010190816109f99190611e95565b5060408201518160020160006101000a81548160ff0219169083151502179055509050506001905092915050565b60006040518060c001604052803373ffffffffffffffffffffffffffffffffffffffff168152602001600054815260200184848080601f016020809104026020016040519081016040528093929190818152602001838380828437600081840152601f19601f820116905080830192505050505050508152602001600015158152602001600081526020016064815250600560008054815260200190815260200160002060008201518160000160006101000a81548173ffffffffffffffffffffffffffffffffffffffff021916908373ffffffffffffffffffffffffffffffffffffffff160217905550602082015181600101556040820151816002019081610b319190611e95565b5060608201518160030160006101000a81548160ff0219169083151502179055506080820151816004015560a08201518160050155905050600360003373ffffffffffffffffffffffffffffffffffffffff1673ffffffffffffffffffffffffffffffffffffffff1681526020019081526020016000206000549080600181540180825580915050600190039060005260206000200160009091909190915055600080815480929190610be390611b9a565b91905055506001905092915050565b60003373ffffffffffffffffffffffffffffffffffffffff166005600084815260200190815260200160002060000160009054906101000a900473ffffffffffffffffffffffffffffffffffffffff1673ffffffffffffffffffffffffffffffffffffffff1603610c665760019050610c6b565b600090505b919050565b60008054905090565b6060600760008381526020019081526020016000206003018054610c9c90611a33565b80601f0160208091040260200160405190810160405280929190818152602001828054610cc890611a33565b8015610d155780601f10610cea57610100808354040283529160200191610d15565b820191906000526020600020905b815481529060010190602001808311610cf857829003601f168201915b50505050509050919050565b60006005600083815260200190815260200160002060030160009054906101000a900460ff169050919050565b6000600260008373ffffffffffffffffffffffffffffffffffffffff1673ffffffffffffffffffffffffffffffffffffffff16815260200190815260200160002060020160009054906101000a900460ff169050919050565b610daf6113a4565b600760008381526020019081526020016000206040518060800160405290816000820160009054906101000a900473ffffffffffffffffffffffffffffffffffffffff1673ffffffffffffffffffffffffffffffffffffffff1673ffffffffffffffffffffffffffffffffffffffff1681526020016001820154815260200160028201548152602001600382018054610e4790611a33565b80601f0160208091040260200160405190810160405280929190818152602001828054610e7390611a33565b8015610ec05780601f10610e9557610100808354040283529160200191610ec0565b820191906000526020600020905b815481529060010190602001808311610ea357829003601f168201915b5050505050815250509050919050565b6000600154905090565b60405180608001604052803373ffffffffffffffffffffffffffffffffffffffff168152602001848152602001600154815260200183838080601f016020809104026020016040519081016040528093929190818152602001838380828437600081840152601f19601f8201169050808301925050505050505081525060076000600154815260200190815260200160002060008201518160000160006101000a81548173ffffffffffffffffffffffffffffffffffffffff021916908373ffffffffffffffffffffffffffffffffffffffff16021790555060208201518160010155604082015181600201556060820151816003019081610fdc9190611e95565b50905050600660008481526020019081526020016000206001549080600181540180825580915050600190039060005260206000200160009091909190915055600460003373ffffffffffffffffffffffffffffffffffffffff1673ffffffffffffffffffffffffffffffffffffffff16815260200190815260200160002060015490806001815401808255809150506001900390600052602060002001600090919091909150556001600081548092919061109790611b9a565b9190505550505050565b600060056000838152602001908152602001600020600401549050919050565b6060600360003373ffffffffffffffffffffffffffffffffffffffff1673ffffffffffffffffffffffffffffffffffffffff16815260200190815260200160002080548060200260200160405190810160405280929190818152602001828054801561114c57602002820191906000526020600020905b815481526020019060010190808311611138575b5050505050905090565b61115e6113e2565b600560008381526020019081526020016000206040518060c00160405290816000820160009054906101000a900473ffffffffffffffffffffffffffffffffffffffff1673ffffffffffffffffffffffffffffffffffffffff1673ffffffffffffffffffffffffffffffffffffffff168152602001600182015481526020016002820180546111ec90611a33565b80601f016020809104026020016040519081016040528092919081815260200182805461121890611a33565b80156112655780601f1061123a57610100808354040283529160200191611265565b820191906000526020600020905b81548152906001019060200180831161124857829003601f168201915b505050505081526020016003820160009054906101000a900460ff16151515158152602001600482015481526020016005820154815250509050919050565b6060600460003373ffffffffffffffffffffffffffffffffffffffff1673ffffffffffffffffffffffffffffffffffffffff16815260200190815260200160002080548060200260200160405190810160405280929190818152602001828054801561132f57602002820191906000526020600020905b81548152602001906001019080831161131b575b5050505050905090565b60606006600083815260200190815260200160002080548060200260200160405190810160405280929190818152602001828054801561139857602002820191906000526020600020905b815481526020019060010190808311611384575b50505050509050919050565b6040518060800160405280600073ffffffffffffffffffffffffffffffffffffffff1681526020016000815260200160008152602001606081525090565b6040518060c00160405280600073ffffffffffffffffffffffffffffffffffffffff168152602001600081526020016060815260200160001515815260200160008152602001600081525090565b600080fd5b600080fd5b600073ffffffffffffffffffffffffffffffffffffffff82169050919050565b60006114658261143a565b9050919050565b6114758161145a565b811461148057600080fd5b50565b6000813590506114928161146c565b92915050565b6000602082840312156114ae576114ad611430565b5b60006114bc84828501611483565b91505092915050565b600081519050919050565b600082825260208201905092915050565b60005b838110156114ff5780820151818401526020810190506114e4565b60008484015250505050565b6000601f19601f8301169050919050565b6000611527826114c5565b61153181856114d0565b93506115418185602086016114e1565b61154a8161150b565b840191505092915050565b6000602082019050818103600083015261156f818461151c565b905092915050565b6000819050919050565b61158a81611577565b811461159557600080fd5b50565b6000813590506115a781611581565b92915050565b6000602082840312156115c3576115c2611430565b5b60006115d184828501611598565b91505092915050565b600080604083850312156115f1576115f0611430565b5b60006115ff85828601611598565b925050602061161085828601611598565b9150509250929050565b60008115159050919050565b61162f8161161a565b82525050565b600060208201905061164a6000830184611626565b92915050565b600080fd5b600080fd5b600080fd5b60008083601f84011261167557611674611650565b5b8235905067ffffffffffffffff81111561169257611691611655565b5b6020830191508360018202830111156116ae576116ad61165a565b5b9250929050565b600080602083850312156116cc576116cb611430565b5b600083013567ffffffffffffffff8111156116ea576116e9611435565b5b6116f68582860161165f565b92509250509250929050565b61170b81611577565b82525050565b60006020820190506117266000830184611702565b92915050565b6117358161145a565b82525050565b61174481611577565b82525050565b600082825260208201905092915050565b6000611766826114c5565b611770818561174a565b93506117808185602086016114e1565b6117898161150b565b840191505092915050565b60006080830160008301516117ac600086018261172c565b5060208301516117bf602086018261173b565b5060408301516117d2604086018261173b565b50606083015184820360608601526117ea828261175b565b9150508091505092915050565b600060208201905081810360008301526118118184611794565b905092915050565b60008060006040848603121561183257611831611430565b5b600061184086828701611598565b935050602084013567ffffffffffffffff81111561186157611860611435565b5b61186d8682870161165f565b92509250509250925092565b600081519050919050565b600082825260208201905092915050565b6000819050602082019050919050565b60006118b1838361173b565b60208301905092915050565b6000602082019050919050565b60006118d582611879565b6118df8185611884565b93506118ea83611895565b8060005b8381101561191b57815161190288826118a5565b975061190d836118bd565b9250506001810190506118ee565b5085935050505092915050565b6000602082019050818103600083015261194281846118ca565b905092915050565b6119538161161a565b82525050565b600060c083016000830151611971600086018261172c565b506020830151611984602086018261173b565b506040830151848203604086015261199c828261175b565b91505060608301516119b1606086018261194a565b5060808301516119c4608086018261173b565b5060a08301516119d760a086018261173b565b508091505092915050565b600060208201905081810360008301526119fc8184611959565b905092915050565b7f4e487b7100000000000000000000000000000000000000000000000000000000600052602260045260246000fd5b60006002820490506001821680611a4b57607f821691505b602082108103611a5e57611a5d611a04565b5b50919050565b7f55736572206e6f74207265676973746572656400000000000000000000000000600082015250565b6000611a9a6013836114d0565b9150611aa582611a64565b602082019050919050565b60006020820190508181036000830152611ac981611a8d565b9050919050565b7f4e6f742074686520617574686f72000000000000000000000000000000000000600082015250565b6000611b06600e836114d0565b9150611b1182611ad0565b602082019050919050565b60006020820190508181036000830152611b3581611af9565b9050919050565b7f4e487b7100000000000000000000000000000000000000000000000000000000600052603260045260246000fd5b7f4e487b7100000000000000000000000000000000000000000000000000000000600052601160045260246000fd5b6000611ba582611577565b91507fffffffffffffffffffffffffffffffffffffffffffffffffffffffffffffffff8203611bd757611bd6611b6b565b5b600182019050919050565b7f4e6f7420616e737765726420746f207468697320716964000000000000000000600082015250565b6000611c186017836114d0565b9150611c2382611be2565b602082019050919050565b60006020820190508181036000830152611c4781611c0b565b9050919050565b7f5573657220616c72656164792072656769737465726564000000000000000000600082015250565b6000611c846017836114d0565b9150611c8f82611c4e565b602082019050919050565b60006020820190508181036000830152611cb381611c77565b9050919050565b7f4e487b7100000000000000000000000000000000000000000000000000000000600052604160045260246000fd5b60008190508160005260206000209050919050565b60006020601f8301049050919050565b600082821b905092915050565b600060088302611d4b7fffffffffffffffffffffffffffffffffffffffffffffffffffffffffffffffff82611d0e565b611d558683611d0e565b95508019841693508086168417925050509392505050565b6000819050919050565b6000611d92611d8d611d8884611577565b611d6d565b611577565b9050919050565b6000819050919050565b611dac83611d77565b611dc0611db882611d99565b848454611d1b565b825550505050565b600090565b611dd5611dc8565b611de0818484611da3565b505050565b5b81811015611e0457611df9600082611dcd565b600181019050611de6565b5050565b601f821115611e4957611e1a81611ce9565b611e2384611cfe565b81016020851015611e32578190505b611e46611e3e85611cfe565b830182611de5565b50505b505050565b600082821c905092915050565b6000611e6c60001984600802611e4e565b1980831691505092915050565b6000611e858383611e5b565b9150826002028217905092915050565b611e9e826114c5565b67ffffffffffffffff811115611eb757611eb6611cba565b5b611ec18254611a33565b611ecc828285611e08565b600060209050601f831160018114611eff5760008415611eed578287015190505b611ef78582611e79565b865550611f5f565b601f198416611f0d86611ce9565b60005b82811015611f3557848901518255600182019150602085019450602081019050611f10565b86831015611f525784890151611f4e601f891682611e5b565b8355505b6001600288020188555050505b50505050505056fea264697066735822122087b43eaf65556aeb8223f5fbf568af8dddd9f9a5a3669866ab66f6d88dc12a5364736f6c63430008100033",
  "linkReferences": {},
  "deployedLinkReferences": {}
}