{
  "_format": "hh-sol-artifact-1",
  "contractName": "KNOV1",
  "sourceName": "contracts/KNOV1.sol",
  "abi": [
    {
      "inputs": [
        {
          "internalType": "contract KNOToken",
          "name": "_knoToken",
          "type": "address"
        }
      ],
      "stateMutability": "nonpayable",
      "type": "constructor"
    },
    {
      "inputs": [
        {
          "internalType": "uint256",
          "name": "aid",
          "type": "uint256"
        }
      ],
      "name": "getAnswer",
      "outputs": [
        {
          "components": [
            {
              "internalType": "address",
              "name": "author",
              "type": "address"
            },
            {
              "internalType": "uint256",
              "name": "qid",
              "type": "uint256"
            },
            {
              "internalType": "uint256",
              "name": "aid",
              "type": "uint256"
            },
            {
              "internalType": "string",
              "name": "cid",
              "type": "string"
            }
          ],
          "internalType": "struct KNOV1.Answer",
          "name": "",
          "type": "tuple"
        }
      ],
      "stateMutability": "view",
      "type": "function"
    },
    {
      "inputs": [
        {
          "internalType": "uint256",
          "name": "aid",
          "type": "uint256"
        }
      ],
      "name": "getAnswerCid",
      "outputs": [
        {
          "internalType": "string",
          "name": "",
          "type": "string"
        }
      ],
      "stateMutability": "view",
      "type": "function"
    },
    {
      "inputs": [
        {
          "internalType": "uint256",
          "name": "qid",
          "type": "uint256"
        }
      ],
      "name": "getIsAuthor",
      "outputs": [
        {
          "internalType": "bool",
          "name": "",
          "type": "bool"
        }
      ],
      "stateMutability": "view",
      "type": "function"
    },
    {
      "inputs": [
        {
          "internalType": "address",
          "name": "userAddr",
          "type": "address"
        }
      ],
      "name": "getIsRegistered",
      "outputs": [
        {
          "internalType": "bool",
          "name": "",
          "type": "bool"
        }
      ],
      "stateMutability": "view",
      "type": "function"
    },
    {
      "inputs": [
        {
          "internalType": "uint256",
          "name": "qid",
          "type": "uint256"
        }
      ],
      "name": "getIsSelected",
      "outputs": [
        {
          "internalType": "bool",
          "name": "",
          "type": "bool"
        }
      ],
      "stateMutability": "view",
      "type": "function"
    },
    {
      "inputs": [
        {
          "internalType": "uint256",
          "name": "qid",
          "type": "uint256"
        }
      ],
      "name": "getQuestion",
      "outputs": [
        {
          "components": [
            {
              "internalType": "address",
              "name": "author",
              "type": "address"
            },
            {
              "internalType": "uint256",
              "name": "qid",
              "type": "uint256"
            },
            {
              "internalType": "string",
              "name": "cid",
              "type": "string"
            },
            {
              "internalType": "bool",
              "name": "isSelected",
              "type": "bool"
            },
            {
              "internalType": "uint256",
              "name": "selectedAnswerId",
              "type": "uint256"
            },
            {
              "internalType": "uint256",
              "name": "reward",
              "type": "uint256"
            }
          ],
          "internalType": "struct KNOV1.Question",
          "name": "",
          "type": "tuple"
        }
      ],
      "stateMutability": "view",
      "type": "function"
    },
    {
      "inputs": [
        {
          "internalType": "uint256",
          "name": "qid",
          "type": "uint256"
        }
      ],
      "name": "getQuestionAids",
      "outputs": [
        {
          "internalType": "uint256[]",
          "name": "",
          "type": "uint256[]"
        }
      ],
      "stateMutability": "view",
      "type": "function"
    },
    {
      "inputs": [
        {
          "internalType": "uint256",
          "name": "qid",
          "type": "uint256"
        }
      ],
      "name": "getQuestionCid",
      "outputs": [
        {
          "internalType": "string",
          "name": "",
          "type": "string"
        }
      ],
      "stateMutability": "view",
      "type": "function"
    },
    {
      "inputs": [
        {
          "internalType": "uint256",
          "name": "qid",
          "type": "uint256"
        }
      ],
      "name": "getSelectedAnswerId",
      "outputs": [
        {
          "internalType": "uint256",
          "name": "",
          "type": "uint256"
        }
      ],
      "stateMutability": "view",
      "type": "function"
    },
    {
      "inputs": [],
      "name": "getTotalAnswerNumber",
      "outputs": [
        {
          "internalType": "uint256",
          "name": "",
          "type": "uint256"
        }
      ],
      "stateMutability": "view",
      "type": "function"
    },
    {
      "inputs": [],
      "name": "getTotalQuestionNumber",
      "outputs": [
        {
          "internalType": "uint256",
          "name": "",
          "type": "uint256"
        }
      ],
      "stateMutability": "view",
      "type": "function"
    },
    {
      "inputs": [],
      "name": "getUserAids",
      "outputs": [
        {
          "internalType": "uint256[]",
          "name": "",
          "type": "uint256[]"
        }
      ],
      "stateMutability": "view",
      "type": "function"
    },
    {
      "inputs": [
        {
          "internalType": "address",
          "name": "userAddr",
          "type": "address"
        }
      ],
      "name": "getUserNickname",
      "outputs": [
        {
          "internalType": "string",
          "name": "",
          "type": "string"
        }
      ],
      "stateMutability": "view",
      "type": "function"
    },
    {
      "inputs": [],
      "name": "getUserQids",
      "outputs": [
        {
          "internalType": "uint256[]",
          "name": "",
          "type": "uint256[]"
        }
      ],
      "stateMutability": "view",
      "type": "function"
    },
    {
      "inputs": [
        {
          "internalType": "uint256",
          "name": "qid",
          "type": "uint256"
        },
        {
          "internalType": "string",
          "name": "cid",
          "type": "string"
        }
      ],
      "name": "postAnswer",
      "outputs": [],
      "stateMutability": "nonpayable",
      "type": "function"
    },
    {
      "inputs": [
        {
          "internalType": "string",
          "name": "cid",
          "type": "string"
        },
        {
          "internalType": "uint256",
          "name": "reward",
          "type": "uint256"
        }
      ],
      "name": "postQuestion",
      "outputs": [
        {
          "internalType": "bool",
          "name": "",
          "type": "bool"
        }
      ],
      "stateMutability": "nonpayable",
      "type": "function"
    },
    {
      "inputs": [
        {
          "internalType": "string",
          "name": "nickname",
          "type": "string"
        }
      ],
      "name": "registerUser",
      "outputs": [
        {
          "internalType": "bool",
          "name": "",
          "type": "bool"
        }
      ],
      "stateMutability": "nonpayable",
      "type": "function"
    },
    {
      "inputs": [
        {
          "internalType": "uint256",
          "name": "qid",
          "type": "uint256"
        },
        {
          "internalType": "uint256",
          "name": "aid",
          "type": "uint256"
        }
      ],
      "name": "selectAnswer",
      "outputs": [
        {
          "internalType": "bool",
          "name": "",
          "type": "bool"
        }
      ],
      "stateMutability": "nonpayable",
      "type": "function"
    }
  ],
  "bytecode": "0x60c06040523480156200001157600080fd5b506040516200273138038062002731833981810160405281019062000037919062000124565b3373ffffffffffffffffffffffffffffffffffffffff1660808173ffffffffffffffffffffffffffffffffffffffff16815250508073ffffffffffffffffffffffffffffffffffffffff1660a08173ffffffffffffffffffffffffffffffffffffffff16815250505062000156565b600080fd5b600073ffffffffffffffffffffffffffffffffffffffff82169050919050565b6000620000d882620000ab565b9050919050565b6000620000ec82620000cb565b9050919050565b620000fe81620000df565b81146200010a57600080fd5b50565b6000815190506200011e81620000f3565b92915050565b6000602082840312156200013d576200013c620000a6565b5b60006200014d848285016200010d565b91505092915050565b60805160a05161259c62000195600039600081816108a30152818161094201528181610b3c01528181610e380152610ee001526000505061259c6000f3fe608060405234801561001057600080fd5b50600436106101165760003560e01c8063b5611129116100a2578063cbe56e6811610071578063cbe56e6814610353578063d3ccdb2714610383578063db88176f146103a1578063e54f50b5146103d1578063fa2decda146103ef57610116565b8063b5611129146102b9578063b5ab58dc146102e9578063b637fa1814610319578063c921d66c1461033757610116565b8063704f1b94116100e9578063704f1b94146101db578063858fdec11461020b5780638828fd041461023b578063903aac4c14610259578063a62a68871461028957610116565b806304766a7a1461011b5780630b0402791461014b5780633d9c48931461017b57806348d69ab3146101ab575b600080fd5b61013560048036038101906101309190611839565b61041f565b60405161014291906118f6565b60405180910390f35b6101656004803603810190610160919061194e565b6105c3565b60405161017291906118f6565b60405180910390f35b6101956004803603810190610190919061197b565b61066b565b6040516101a291906119d6565b60405180910390f35b6101c560048036038101906101c09190611a56565b6109f9565b6040516101d291906119d6565b60405180910390f35b6101f560048036038101906101f09190611ab6565b610c6d565b60405161020291906119d6565b60405180910390f35b6102256004803603810190610220919061194e565b610f93565b60405161023291906119d6565b60405180910390f35b610243611011565b6040516102509190611b12565b60405180910390f35b610273600480360381019061026e919061194e565b61101a565b60405161028091906118f6565b60405180910390f35b6102a3600480360381019061029e919061194e565b6110c2565b6040516102b091906119d6565b60405180910390f35b6102d360048036038101906102ce9190611839565b6110ef565b6040516102e091906119d6565b60405180910390f35b61030360048036038101906102fe919061194e565b611148565b6040516103109190611bf8565b60405180910390f35b610321611271565b60405161032e9190611b12565b60405180910390f35b610351600480360381019061034c9190611c1a565b61127b565b005b61036d6004803603810190610368919061194e565b611442565b60405161037a9190611b12565b60405180910390f35b61038b611462565b6040516103989190611d29565b60405180910390f35b6103bb60048036038101906103b6919061194e565b6114f7565b6040516103c89190611de3565b60405180910390f35b6103d9611645565b6040516103e69190611d29565b60405180910390f35b6104096004803603810190610404919061194e565b6116da565b6040516104169190611d29565b60405180910390f35b60606000600260008473ffffffffffffffffffffffffffffffffffffffff1673ffffffffffffffffffffffffffffffffffffffff1681526020019081526020016000206040518060600160405290816000820160009054906101000a900473ffffffffffffffffffffffffffffffffffffffff1673ffffffffffffffffffffffffffffffffffffffff1673ffffffffffffffffffffffffffffffffffffffff1681526020016001820180546104d390611e34565b80601f01602080910402602001604051908101604052809291908181526020018280546104ff90611e34565b801561054c5780601f106105215761010080835404028352916020019161054c565b820191906000526020600020905b81548152906001019060200180831161052f57829003601f168201915b505050505081526020016002820160009054906101000a900460ff161515151581525050905080604001516105b6576040517f08c379a00000000000000000000000000000000000000000000000000000000081526004016105ad90611eb1565b60405180910390fd5b8060200151915050919050565b60606005600083815260200190815260200160002060020180546105e690611e34565b80601f016020809104026020016040519081016040528092919081815260200182805461061290611e34565b801561065f5780601f106106345761010080835404028352916020019161065f565b820191906000526020600020905b81548152906001019060200180831161064257829003601f168201915b50505050509050919050565b60003373ffffffffffffffffffffffffffffffffffffffff166005600085815260200190815260200160002060000160009054906101000a900473ffffffffffffffffffffffffffffffffffffffff1673ffffffffffffffffffffffffffffffffffffffff1614610711576040517f08c379a000000000000000000000000000000000000000000000000000000000815260040161070890611f1d565b60405180910390fd5b6000806006600086815260200190815260200160002080548060200260200160405190810160405280929190818152602001828054801561077157602002820191906000526020600020905b81548152602001906001019080831161075d575b50505050509050600080600090505b82518110156107c2578583828151811061079d5761079c611f3d565b5b6020026020010151036107af57600193505b80806107ba90611f9b565b915050610780565b5082610803576040517f08c379a00000000000000000000000000000000000000000000000000000000081526004016107fa9061202f565b60405180910390fd5b6007600086815260200190815260200160002060000160009054906101000a900473ffffffffffffffffffffffffffffffffffffffff16905060016005600088815260200190815260200160002060030160006101000a81548160ff0219169083151502179055508460056000888152602001908152602001600020600401819055506000600560008881526020019081526020016000206005015490507f000000000000000000000000000000000000000000000000000000000000000073ffffffffffffffffffffffffffffffffffffffff1663a9059cbb83836040518363ffffffff1660e01b81526004016108fc92919061205e565b6020604051808303816000875af115801561091b573d6000803e3d6000fd5b505050506040513d601f19601f8201168201806040525081019061093f91906120b3565b507f000000000000000000000000000000000000000000000000000000000000000073ffffffffffffffffffffffffffffffffffffffff1663a9059cbb3360058461098a919061210f565b6040518363ffffffff1660e01b81526004016109a792919061205e565b6020604051808303816000875af11580156109c6573d6000803e3d6000fd5b505050506040513d601f19601f820116820180604052508101906109ea91906120b3565b50600194505050505092915050565b60006040518060c001604052803373ffffffffffffffffffffffffffffffffffffffff168152602001600054815260200185858080601f016020809104026020016040519081016040528093929190818152602001838380828437600081840152601f19601f8201169050808301925050505050505081526020016000151581526020016000815260200183815250600560008054815260200190815260200160002060008201518160000160006101000a81548173ffffffffffffffffffffffffffffffffffffffff021916908373ffffffffffffffffffffffffffffffffffffffff160217905550602082015181600101556040820151816002019081610b02919061231b565b5060608201518160030160006101000a81548160ff0219169083151502179055506080820151816004015560a082015181600501559050507f000000000000000000000000000000000000000000000000000000000000000073ffffffffffffffffffffffffffffffffffffffff166323b872dd3330856040518463ffffffff1660e01b8152600401610b97939291906123ed565b6020604051808303816000875af1158015610bb6573d6000803e3d6000fd5b505050506040513d601f19601f82011682018060405250810190610bda91906120b3565b610be357600080fd5b600360003373ffffffffffffffffffffffffffffffffffffffff1673ffffffffffffffffffffffffffffffffffffffff1681526020019081526020016000206000549080600181540180825580915050600190039060005260206000200160009091909190915055600080815480929190610c5d90611f9b565b9190505550600190509392505050565b6000600260003373ffffffffffffffffffffffffffffffffffffffff1673ffffffffffffffffffffffffffffffffffffffff16815260200190815260200160002060020160009054906101000a900460ff1615610cff576040517f08c379a0000000000000000000000000000000000000000000000000000000008152600401610cf690612470565b60405180910390fd5b60405180606001604052803373ffffffffffffffffffffffffffffffffffffffff16815260200184848080601f016020809104026020016040519081016040528093929190818152602001838380828437600081840152601f19601f82011690508083019250505050505050815260200160011515815250600260003373ffffffffffffffffffffffffffffffffffffffff1673ffffffffffffffffffffffffffffffffffffffff16815260200190815260200160002060008201518160000160006101000a81548173ffffffffffffffffffffffffffffffffffffffff021916908373ffffffffffffffffffffffffffffffffffffffff1602179055506020820151816001019081610e12919061231b565b5060408201518160020160006101000a81548160ff0219169083151502179055509050507f000000000000000000000000000000000000000000000000000000000000000073ffffffffffffffffffffffffffffffffffffffff1663a9059cbb33683635c9adc5dea000006040518363ffffffff1660e01b8152600401610e9a9291906124cb565b6020604051808303816000875af1158015610eb9573d6000803e3d6000fd5b505050506040513d601f19601f82011682018060405250810190610edd91906120b3565b507f000000000000000000000000000000000000000000000000000000000000000073ffffffffffffffffffffffffffffffffffffffff166352ec8529333069d3c21bcecceda10000006040518463ffffffff1660e01b8152600401610f459392919061252f565b6020604051808303816000875af1158015610f64573d6000803e3d6000fd5b505050506040513d601f19601f82011682018060405250810190610f8891906120b3565b506001905092915050565b60003373ffffffffffffffffffffffffffffffffffffffff166005600084815260200190815260200160002060000160009054906101000a900473ffffffffffffffffffffffffffffffffffffffff1673ffffffffffffffffffffffffffffffffffffffff1603611007576001905061100c565b600090505b919050565b60008054905090565b606060076000838152602001908152602001600020600301805461103d90611e34565b80601f016020809104026020016040519081016040528092919081815260200182805461106990611e34565b80156110b65780601f1061108b576101008083540402835291602001916110b6565b820191906000526020600020905b81548152906001019060200180831161109957829003601f168201915b50505050509050919050565b60006005600083815260200190815260200160002060030160009054906101000a900460ff169050919050565b6000600260008373ffffffffffffffffffffffffffffffffffffffff1673ffffffffffffffffffffffffffffffffffffffff16815260200190815260200160002060020160009054906101000a900460ff169050919050565b611150611745565b600760008381526020019081526020016000206040518060800160405290816000820160009054906101000a900473ffffffffffffffffffffffffffffffffffffffff1673ffffffffffffffffffffffffffffffffffffffff1673ffffffffffffffffffffffffffffffffffffffff16815260200160018201548152602001600282015481526020016003820180546111e890611e34565b80601f016020809104026020016040519081016040528092919081815260200182805461121490611e34565b80156112615780601f1061123657610100808354040283529160200191611261565b820191906000526020600020905b81548152906001019060200180831161124457829003601f168201915b5050505050815250509050919050565b6000600154905090565b60405180608001604052803373ffffffffffffffffffffffffffffffffffffffff168152602001848152602001600154815260200183838080601f016020809104026020016040519081016040528093929190818152602001838380828437600081840152601f19601f8201169050808301925050505050505081525060076000600154815260200190815260200160002060008201518160000160006101000a81548173ffffffffffffffffffffffffffffffffffffffff021916908373ffffffffffffffffffffffffffffffffffffffff1602179055506020820151816001015560408201518160020155606082015181600301908161137d919061231b565b50905050600660008481526020019081526020016000206001549080600181540180825580915050600190039060005260206000200160009091909190915055600460003373ffffffffffffffffffffffffffffffffffffffff1673ffffffffffffffffffffffffffffffffffffffff16815260200190815260200160002060015490806001815401808255809150506001900390600052602060002001600090919091909150556001600081548092919061143890611f9b565b9190505550505050565b600060056000838152602001908152602001600020600401549050919050565b6060600360003373ffffffffffffffffffffffffffffffffffffffff1673ffffffffffffffffffffffffffffffffffffffff1681526020019081526020016000208054806020026020016040519081016040528092919081815260200182805480156114ed57602002820191906000526020600020905b8154815260200190600101908083116114d9575b5050505050905090565b6114ff611783565b600560008381526020019081526020016000206040518060c00160405290816000820160009054906101000a900473ffffffffffffffffffffffffffffffffffffffff1673ffffffffffffffffffffffffffffffffffffffff1673ffffffffffffffffffffffffffffffffffffffff1681526020016001820154815260200160028201805461158d90611e34565b80601f01602080910402602001604051908101604052809291908181526020018280546115b990611e34565b80156116065780601f106115db57610100808354040283529160200191611606565b820191906000526020600020905b8154815290600101906020018083116115e957829003601f168201915b505050505081526020016003820160009054906101000a900460ff16151515158152602001600482015481526020016005820154815250509050919050565b6060600460003373ffffffffffffffffffffffffffffffffffffffff1673ffffffffffffffffffffffffffffffffffffffff1681526020019081526020016000208054806020026020016040519081016040528092919081815260200182805480156116d057602002820191906000526020600020905b8154815260200190600101908083116116bc575b5050505050905090565b60606006600083815260200190815260200160002080548060200260200160405190810160405280929190818152602001828054801561173957602002820191906000526020600020905b815481526020019060010190808311611725575b50505050509050919050565b6040518060800160405280600073ffffffffffffffffffffffffffffffffffffffff1681526020016000815260200160008152602001606081525090565b6040518060c00160405280600073ffffffffffffffffffffffffffffffffffffffff168152602001600081526020016060815260200160001515815260200160008152602001600081525090565b600080fd5b600080fd5b600073ffffffffffffffffffffffffffffffffffffffff82169050919050565b6000611806826117db565b9050919050565b611816816117fb565b811461182157600080fd5b50565b6000813590506118338161180d565b92915050565b60006020828403121561184f5761184e6117d1565b5b600061185d84828501611824565b91505092915050565b600081519050919050565b600082825260208201905092915050565b60005b838110156118a0578082015181840152602081019050611885565b60008484015250505050565b6000601f19601f8301169050919050565b60006118c882611866565b6118d28185611871565b93506118e2818560208601611882565b6118eb816118ac565b840191505092915050565b6000602082019050818103600083015261191081846118bd565b905092915050565b6000819050919050565b61192b81611918565b811461193657600080fd5b50565b60008135905061194881611922565b92915050565b600060208284031215611964576119636117d1565b5b600061197284828501611939565b91505092915050565b60008060408385031215611992576119916117d1565b5b60006119a085828601611939565b92505060206119b185828601611939565b9150509250929050565b60008115159050919050565b6119d0816119bb565b82525050565b60006020820190506119eb60008301846119c7565b92915050565b600080fd5b600080fd5b600080fd5b60008083601f840112611a1657611a156119f1565b5b8235905067ffffffffffffffff811115611a3357611a326119f6565b5b602083019150836001820283011115611a4f57611a4e6119fb565b5b9250929050565b600080600060408486031215611a6f57611a6e6117d1565b5b600084013567ffffffffffffffff811115611a8d57611a8c6117d6565b5b611a9986828701611a00565b93509350506020611aac86828701611939565b9150509250925092565b60008060208385031215611acd57611acc6117d1565b5b600083013567ffffffffffffffff811115611aeb57611aea6117d6565b5b611af785828601611a00565b92509250509250929050565b611b0c81611918565b82525050565b6000602082019050611b276000830184611b03565b92915050565b611b36816117fb565b82525050565b611b4581611918565b82525050565b600082825260208201905092915050565b6000611b6782611866565b611b718185611b4b565b9350611b81818560208601611882565b611b8a816118ac565b840191505092915050565b6000608083016000830151611bad6000860182611b2d565b506020830151611bc06020860182611b3c565b506040830151611bd36040860182611b3c565b5060608301518482036060860152611beb8282611b5c565b9150508091505092915050565b60006020820190508181036000830152611c128184611b95565b905092915050565b600080600060408486031215611c3357611c326117d1565b5b6000611c4186828701611939565b935050602084013567ffffffffffffffff811115611c6257611c616117d6565b5b611c6e86828701611a00565b92509250509250925092565b600081519050919050565b600082825260208201905092915050565b6000819050602082019050919050565b6000611cb28383611b3c565b60208301905092915050565b6000602082019050919050565b6000611cd682611c7a565b611ce08185611c85565b9350611ceb83611c96565b8060005b83811015611d1c578151611d038882611ca6565b9750611d0e83611cbe565b925050600181019050611cef565b5085935050505092915050565b60006020820190508181036000830152611d438184611ccb565b905092915050565b611d54816119bb565b82525050565b600060c083016000830151611d726000860182611b2d565b506020830151611d856020860182611b3c565b5060408301518482036040860152611d9d8282611b5c565b9150506060830151611db26060860182611d4b565b506080830151611dc56080860182611b3c565b5060a0830151611dd860a0860182611b3c565b508091505092915050565b60006020820190508181036000830152611dfd8184611d5a565b905092915050565b7f4e487b7100000000000000000000000000000000000000000000000000000000600052602260045260246000fd5b60006002820490506001821680611e4c57607f821691505b602082108103611e5f57611e5e611e05565b5b50919050565b7f55736572206e6f74207265676973746572656400000000000000000000000000600082015250565b6000611e9b601383611871565b9150611ea682611e65565b602082019050919050565b60006020820190508181036000830152611eca81611e8e565b9050919050565b7f4e6f742074686520617574686f72000000000000000000000000000000000000600082015250565b6000611f07600e83611871565b9150611f1282611ed1565b602082019050919050565b60006020820190508181036000830152611f3681611efa565b9050919050565b7f4e487b7100000000000000000000000000000000000000000000000000000000600052603260045260246000fd5b7f4e487b7100000000000000000000000000000000000000000000000000000000600052601160045260246000fd5b6000611fa682611918565b91507fffffffffffffffffffffffffffffffffffffffffffffffffffffffffffffffff8203611fd857611fd7611f6c565b5b600182019050919050565b7f4e6f7420616e737765726420746f207468697320716964000000000000000000600082015250565b6000612019601783611871565b915061202482611fe3565b602082019050919050565b600060208201905081810360008301526120488161200c565b9050919050565b612058816117fb565b82525050565b6000604082019050612073600083018561204f565b6120806020830184611b03565b9392505050565b612090816119bb565b811461209b57600080fd5b50565b6000815190506120ad81612087565b92915050565b6000602082840312156120c9576120c86117d1565b5b60006120d78482850161209e565b91505092915050565b7f4e487b7100000000000000000000000000000000000000000000000000000000600052601260045260246000fd5b600061211a82611918565b915061212583611918565b925082612135576121346120e0565b5b828204905092915050565b7f4e487b7100000000000000000000000000000000000000000000000000000000600052604160045260246000fd5b60008190508160005260206000209050919050565b60006020601f8301049050919050565b600082821b905092915050565b6000600883026121d17fffffffffffffffffffffffffffffffffffffffffffffffffffffffffffffffff82612194565b6121db8683612194565b95508019841693508086168417925050509392505050565b6000819050919050565b600061221861221361220e84611918565b6121f3565b611918565b9050919050565b6000819050919050565b612232836121fd565b61224661223e8261221f565b8484546121a1565b825550505050565b600090565b61225b61224e565b612266818484612229565b505050565b5b8181101561228a5761227f600082612253565b60018101905061226c565b5050565b601f8211156122cf576122a08161216f565b6122a984612184565b810160208510156122b8578190505b6122cc6122c485612184565b83018261226b565b50505b505050565b600082821c905092915050565b60006122f2600019846008026122d4565b1980831691505092915050565b600061230b83836122e1565b9150826002028217905092915050565b61232482611866565b67ffffffffffffffff81111561233d5761233c612140565b5b6123478254611e34565b61235282828561228e565b600060209050601f8311600181146123855760008415612373578287015190505b61237d85826122ff565b8655506123e5565b601f1984166123938661216f565b60005b828110156123bb57848901518255600182019150602085019450602081019050612396565b868310156123d857848901516123d4601f8916826122e1565b8355505b6001600288020188555050505b505050505050565b6000606082019050612402600083018661204f565b61240f602083018561204f565b61241c6040830184611b03565b949350505050565b7f5573657220616c72656164792072656769737465726564000000000000000000600082015250565b600061245a601783611871565b915061246582612424565b602082019050919050565b600060208201905081810360008301526124898161244d565b9050919050565b6000819050919050565b60006124b56124b06124ab84612490565b6121f3565b611918565b9050919050565b6124c58161249a565b82525050565b60006040820190506124e0600083018561204f565b6124ed60208301846124bc565b9392505050565b6000819050919050565b600061251961251461250f846124f4565b6121f3565b611918565b9050919050565b612529816124fe565b82525050565b6000606082019050612544600083018661204f565b612551602083018561204f565b61255e6040830184612520565b94935050505056fea26469706673582212203b3e0f4a29308348a33c289e5335c0b2ab4c65ac796fc452b7ce1b6c7384e0ef64736f6c63430008100033",
  "linkReferences": {},
  "deployedLinkReferences": {}
}