{
  "_format": "hh-sol-artifact-1",
  "contractName": "KNOV1",
  "sourceName": "contracts/KNOV1.sol",
  "abi": [
    {
      "inputs": [
        {
          "internalType": "contract IERC20",
          "name": "_knoToken",
          "type": "address"
        }
      ],
      "stateMutability": "nonpayable",
      "type": "constructor"
    },
    {
      "inputs": [
        {
          "internalType": "uint256",
          "name": "aid",
          "type": "uint256"
        }
      ],
      "name": "getAnswer",
      "outputs": [
        {
          "components": [
            {
              "internalType": "address",
              "name": "author",
              "type": "address"
            },
            {
              "internalType": "uint256",
              "name": "qid",
              "type": "uint256"
            },
            {
              "internalType": "uint256",
              "name": "aid",
              "type": "uint256"
            },
            {
              "internalType": "string",
              "name": "cid",
              "type": "string"
            }
          ],
          "internalType": "struct KNOV1.Answer",
          "name": "",
          "type": "tuple"
        }
      ],
      "stateMutability": "view",
      "type": "function"
    },
    {
      "inputs": [
        {
          "internalType": "uint256",
          "name": "aid",
          "type": "uint256"
        }
      ],
      "name": "getAnswerCid",
      "outputs": [
        {
          "internalType": "string",
          "name": "",
          "type": "string"
        }
      ],
      "stateMutability": "view",
      "type": "function"
    },
    {
      "inputs": [
        {
          "internalType": "uint256",
          "name": "qid",
          "type": "uint256"
        }
      ],
      "name": "getIsAuthor",
      "outputs": [
        {
          "internalType": "bool",
          "name": "",
          "type": "bool"
        }
      ],
      "stateMutability": "view",
      "type": "function"
    },
    {
      "inputs": [
        {
          "internalType": "address",
          "name": "userAddr",
          "type": "address"
        }
      ],
      "name": "getIsRegistered",
      "outputs": [
        {
          "internalType": "bool",
          "name": "",
          "type": "bool"
        }
      ],
      "stateMutability": "view",
      "type": "function"
    },
    {
      "inputs": [
        {
          "internalType": "uint256",
          "name": "qid",
          "type": "uint256"
        }
      ],
      "name": "getIsSelected",
      "outputs": [
        {
          "internalType": "bool",
          "name": "",
          "type": "bool"
        }
      ],
      "stateMutability": "view",
      "type": "function"
    },
    {
      "inputs": [
        {
          "internalType": "uint256",
          "name": "qid",
          "type": "uint256"
        }
      ],
      "name": "getQuestion",
      "outputs": [
        {
          "components": [
            {
              "internalType": "address",
              "name": "author",
              "type": "address"
            },
            {
              "internalType": "uint256",
              "name": "qid",
              "type": "uint256"
            },
            {
              "internalType": "string",
              "name": "cid",
              "type": "string"
            },
            {
              "internalType": "bool",
              "name": "isSelected",
              "type": "bool"
            },
            {
              "internalType": "uint256",
              "name": "selectedAnswerId",
              "type": "uint256"
            },
            {
              "internalType": "uint256",
              "name": "reward",
              "type": "uint256"
            }
          ],
          "internalType": "struct KNOV1.Question",
          "name": "",
          "type": "tuple"
        }
      ],
      "stateMutability": "view",
      "type": "function"
    },
    {
      "inputs": [
        {
          "internalType": "uint256",
          "name": "qid",
          "type": "uint256"
        }
      ],
      "name": "getQuestionAids",
      "outputs": [
        {
          "internalType": "uint256[]",
          "name": "",
          "type": "uint256[]"
        }
      ],
      "stateMutability": "view",
      "type": "function"
    },
    {
      "inputs": [
        {
          "internalType": "uint256",
          "name": "qid",
          "type": "uint256"
        }
      ],
      "name": "getQuestionCid",
      "outputs": [
        {
          "internalType": "string",
          "name": "",
          "type": "string"
        }
      ],
      "stateMutability": "view",
      "type": "function"
    },
    {
      "inputs": [
        {
          "internalType": "uint256",
          "name": "qid",
          "type": "uint256"
        }
      ],
      "name": "getSelectedAnswerId",
      "outputs": [
        {
          "internalType": "uint256",
          "name": "",
          "type": "uint256"
        }
      ],
      "stateMutability": "view",
      "type": "function"
    },
    {
      "inputs": [],
      "name": "getTotalAnswerNumber",
      "outputs": [
        {
          "internalType": "uint256",
          "name": "",
          "type": "uint256"
        }
      ],
      "stateMutability": "view",
      "type": "function"
    },
    {
      "inputs": [],
      "name": "getTotalQuestionNumber",
      "outputs": [
        {
          "internalType": "uint256",
          "name": "",
          "type": "uint256"
        }
      ],
      "stateMutability": "view",
      "type": "function"
    },
    {
      "inputs": [],
      "name": "getUserAids",
      "outputs": [
        {
          "internalType": "uint256[]",
          "name": "",
          "type": "uint256[]"
        }
      ],
      "stateMutability": "view",
      "type": "function"
    },
    {
      "inputs": [
        {
          "internalType": "address",
          "name": "userAddr",
          "type": "address"
        }
      ],
      "name": "getUserNickname",
      "outputs": [
        {
          "internalType": "string",
          "name": "",
          "type": "string"
        }
      ],
      "stateMutability": "view",
      "type": "function"
    },
    {
      "inputs": [],
      "name": "getUserQids",
      "outputs": [
        {
          "internalType": "uint256[]",
          "name": "",
          "type": "uint256[]"
        }
      ],
      "stateMutability": "view",
      "type": "function"
    },
    {
      "inputs": [
        {
          "internalType": "uint256",
          "name": "qid",
          "type": "uint256"
        },
        {
          "internalType": "string",
          "name": "cid",
          "type": "string"
        }
      ],
      "name": "postAnswer",
      "outputs": [],
      "stateMutability": "nonpayable",
      "type": "function"
    },
    {
      "inputs": [
        {
          "internalType": "string",
          "name": "cid",
          "type": "string"
        },
        {
          "internalType": "uint256",
          "name": "reward",
          "type": "uint256"
        }
      ],
      "name": "postQuestion",
      "outputs": [
        {
          "internalType": "bool",
          "name": "",
          "type": "bool"
        }
      ],
      "stateMutability": "nonpayable",
      "type": "function"
    },
    {
      "inputs": [
        {
          "internalType": "string",
          "name": "nickname",
          "type": "string"
        }
      ],
      "name": "registerUser",
      "outputs": [
        {
          "internalType": "bool",
          "name": "",
          "type": "bool"
        }
      ],
      "stateMutability": "nonpayable",
      "type": "function"
    },
    {
      "inputs": [
        {
          "internalType": "uint256",
          "name": "qid",
          "type": "uint256"
        },
        {
          "internalType": "uint256",
          "name": "aid",
          "type": "uint256"
        }
      ],
      "name": "selectAnswer",
      "outputs": [
        {
          "internalType": "bool",
          "name": "",
          "type": "bool"
        }
      ],
      "stateMutability": "nonpayable",
      "type": "function"
    }
  ],
  "bytecode": "0x60c06040523480156200001157600080fd5b506040516200273138038062002731833981810160405281019062000037919062000124565b3373ffffffffffffffffffffffffffffffffffffffff1660808173ffffffffffffffffffffffffffffffffffffffff16815250508073ffffffffffffffffffffffffffffffffffffffff1660a08173ffffffffffffffffffffffffffffffffffffffff16815250505062000156565b600080fd5b600073ffffffffffffffffffffffffffffffffffffffff82169050919050565b6000620000d882620000ab565b9050919050565b6000620000ec82620000cb565b9050919050565b620000fe81620000df565b81146200010a57600080fd5b50565b6000815190506200011e81620000f3565b92915050565b6000602082840312156200013d576200013c620000a6565b5b60006200014d848285016200010d565b91505092915050565b60805160a05161259c62000195600039600081816108a30152818161094201528181610b3c01528181610e380152610ee801526000505061259c6000f3fe608060405234801561001057600080fd5b50600436106101165760003560e01c8063b5611129116100a2578063cbe56e6811610071578063cbe56e6814610353578063d3ccdb2714610383578063db88176f146103a1578063e54f50b5146103d1578063fa2decda146103ef57610116565b8063b5611129146102b9578063b5ab58dc146102e9578063b637fa1814610319578063c921d66c1461033757610116565b8063704f1b94116100e9578063704f1b94146101db578063858fdec11461020b5780638828fd041461023b578063903aac4c14610259578063a62a68871461028957610116565b806304766a7a1461011b5780630b0402791461014b5780633d9c48931461017b57806348d69ab3146101ab575b600080fd5b61013560048036038101906101309190611847565b61041f565b6040516101429190611904565b60405180910390f35b6101656004803603810190610160919061195c565b6105c3565b6040516101729190611904565b60405180910390f35b61019560048036038101906101909190611989565b61066b565b6040516101a291906119e4565b60405180910390f35b6101c560048036038101906101c09190611a64565b6109f9565b6040516101d291906119e4565b60405180910390f35b6101f560048036038101906101f09190611ac4565b610c6d565b60405161020291906119e4565b60405180910390f35b6102256004803603810190610220919061195c565b610fa1565b60405161023291906119e4565b60405180910390f35b61024361101f565b6040516102509190611b20565b60405180910390f35b610273600480360381019061026e919061195c565b611028565b6040516102809190611904565b60405180910390f35b6102a3600480360381019061029e919061195c565b6110d0565b6040516102b091906119e4565b60405180910390f35b6102d360048036038101906102ce9190611847565b6110fd565b6040516102e091906119e4565b60405180910390f35b61030360048036038101906102fe919061195c565b611156565b6040516103109190611c06565b60405180910390f35b61032161127f565b60405161032e9190611b20565b60405180910390f35b610351600480360381019061034c9190611c28565b611289565b005b61036d6004803603810190610368919061195c565b611450565b60405161037a9190611b20565b60405180910390f35b61038b611470565b6040516103989190611d37565b60405180910390f35b6103bb60048036038101906103b6919061195c565b611505565b6040516103c89190611df1565b60405180910390f35b6103d9611653565b6040516103e69190611d37565b60405180910390f35b6104096004803603810190610404919061195c565b6116e8565b6040516104169190611d37565b60405180910390f35b60606000600260008473ffffffffffffffffffffffffffffffffffffffff1673ffffffffffffffffffffffffffffffffffffffff1681526020019081526020016000206040518060600160405290816000820160009054906101000a900473ffffffffffffffffffffffffffffffffffffffff1673ffffffffffffffffffffffffffffffffffffffff1673ffffffffffffffffffffffffffffffffffffffff1681526020016001820180546104d390611e42565b80601f01602080910402602001604051908101604052809291908181526020018280546104ff90611e42565b801561054c5780601f106105215761010080835404028352916020019161054c565b820191906000526020600020905b81548152906001019060200180831161052f57829003601f168201915b505050505081526020016002820160009054906101000a900460ff161515151581525050905080604001516105b6576040517f08c379a00000000000000000000000000000000000000000000000000000000081526004016105ad90611ebf565b60405180910390fd5b8060200151915050919050565b60606005600083815260200190815260200160002060020180546105e690611e42565b80601f016020809104026020016040519081016040528092919081815260200182805461061290611e42565b801561065f5780601f106106345761010080835404028352916020019161065f565b820191906000526020600020905b81548152906001019060200180831161064257829003601f168201915b50505050509050919050565b60003373ffffffffffffffffffffffffffffffffffffffff166005600085815260200190815260200160002060000160009054906101000a900473ffffffffffffffffffffffffffffffffffffffff1673ffffffffffffffffffffffffffffffffffffffff1614610711576040517f08c379a000000000000000000000000000000000000000000000000000000000815260040161070890611f2b565b60405180910390fd5b6000806006600086815260200190815260200160002080548060200260200160405190810160405280929190818152602001828054801561077157602002820191906000526020600020905b81548152602001906001019080831161075d575b50505050509050600080600090505b82518110156107c2578583828151811061079d5761079c611f4b565b5b6020026020010151036107af57600193505b80806107ba90611fa9565b915050610780565b5082610803576040517f08c379a00000000000000000000000000000000000000000000000000000000081526004016107fa9061203d565b60405180910390fd5b6007600086815260200190815260200160002060000160009054906101000a900473ffffffffffffffffffffffffffffffffffffffff16905060016005600088815260200190815260200160002060030160006101000a81548160ff0219169083151502179055508460056000888152602001908152602001600020600401819055506000600560008881526020019081526020016000206005015490507f000000000000000000000000000000000000000000000000000000000000000073ffffffffffffffffffffffffffffffffffffffff1663a9059cbb83836040518363ffffffff1660e01b81526004016108fc92919061206c565b6020604051808303816000875af115801561091b573d6000803e3d6000fd5b505050506040513d601f19601f8201168201806040525081019061093f91906120c1565b507f000000000000000000000000000000000000000000000000000000000000000073ffffffffffffffffffffffffffffffffffffffff1663a9059cbb3360058461098a919061211d565b6040518363ffffffff1660e01b81526004016109a792919061206c565b6020604051808303816000875af11580156109c6573d6000803e3d6000fd5b505050506040513d601f19601f820116820180604052508101906109ea91906120c1565b50600194505050505092915050565b60006040518060c001604052803373ffffffffffffffffffffffffffffffffffffffff168152602001600054815260200185858080601f016020809104026020016040519081016040528093929190818152602001838380828437600081840152601f19601f8201169050808301925050505050505081526020016000151581526020016000815260200183815250600560008054815260200190815260200160002060008201518160000160006101000a81548173ffffffffffffffffffffffffffffffffffffffff021916908373ffffffffffffffffffffffffffffffffffffffff160217905550602082015181600101556040820151816002019081610b029190612329565b5060608201518160030160006101000a81548160ff0219169083151502179055506080820151816004015560a082015181600501559050507f000000000000000000000000000000000000000000000000000000000000000073ffffffffffffffffffffffffffffffffffffffff166323b872dd3330856040518463ffffffff1660e01b8152600401610b97939291906123fb565b6020604051808303816000875af1158015610bb6573d6000803e3d6000fd5b505050506040513d601f19601f82011682018060405250810190610bda91906120c1565b610be357600080fd5b600360003373ffffffffffffffffffffffffffffffffffffffff1673ffffffffffffffffffffffffffffffffffffffff1681526020019081526020016000206000549080600181540180825580915050600190039060005260206000200160009091909190915055600080815480929190610c5d90611fa9565b9190505550600190509392505050565b6000600260003373ffffffffffffffffffffffffffffffffffffffff1673ffffffffffffffffffffffffffffffffffffffff16815260200190815260200160002060020160009054906101000a900460ff1615610cff576040517f08c379a0000000000000000000000000000000000000000000000000000000008152600401610cf69061247e565b60405180910390fd5b60405180606001604052803373ffffffffffffffffffffffffffffffffffffffff16815260200184848080601f016020809104026020016040519081016040528093929190818152602001838380828437600081840152601f19601f82011690508083019250505050505050815260200160011515815250600260003373ffffffffffffffffffffffffffffffffffffffff1673ffffffffffffffffffffffffffffffffffffffff16815260200190815260200160002060008201518160000160006101000a81548173ffffffffffffffffffffffffffffffffffffffff021916908373ffffffffffffffffffffffffffffffffffffffff1602179055506020820151816001019081610e129190612329565b5060408201518160020160006101000a81548160ff0219169083151502179055509050507f000000000000000000000000000000000000000000000000000000000000000073ffffffffffffffffffffffffffffffffffffffff1663a9059cbb33683635c9adc5dea000006040518363ffffffff1660e01b8152600401610e9a9291906124d9565b6020604051808303816000875af1158015610eb9573d6000803e3d6000fd5b505050506040513d601f19601f82011682018060405250810190610edd91906120c1565b610ee657600080fd5b7f000000000000000000000000000000000000000000000000000000000000000073ffffffffffffffffffffffffffffffffffffffff1663095ea7b33069d3c21bcecceda10000006040518363ffffffff1660e01b8152600401610f4b92919061253d565b6020604051808303816000875af1158015610f6a573d6000803e3d6000fd5b505050506040513d601f19601f82011682018060405250810190610f8e91906120c1565b610f9757600080fd5b6001905092915050565b60003373ffffffffffffffffffffffffffffffffffffffff166005600084815260200190815260200160002060000160009054906101000a900473ffffffffffffffffffffffffffffffffffffffff1673ffffffffffffffffffffffffffffffffffffffff1603611015576001905061101a565b600090505b919050565b60008054905090565b606060076000838152602001908152602001600020600301805461104b90611e42565b80601f016020809104026020016040519081016040528092919081815260200182805461107790611e42565b80156110c45780601f10611099576101008083540402835291602001916110c4565b820191906000526020600020905b8154815290600101906020018083116110a757829003601f168201915b50505050509050919050565b60006005600083815260200190815260200160002060030160009054906101000a900460ff169050919050565b6000600260008373ffffffffffffffffffffffffffffffffffffffff1673ffffffffffffffffffffffffffffffffffffffff16815260200190815260200160002060020160009054906101000a900460ff169050919050565b61115e611753565b600760008381526020019081526020016000206040518060800160405290816000820160009054906101000a900473ffffffffffffffffffffffffffffffffffffffff1673ffffffffffffffffffffffffffffffffffffffff1673ffffffffffffffffffffffffffffffffffffffff16815260200160018201548152602001600282015481526020016003820180546111f690611e42565b80601f016020809104026020016040519081016040528092919081815260200182805461122290611e42565b801561126f5780601f106112445761010080835404028352916020019161126f565b820191906000526020600020905b81548152906001019060200180831161125257829003601f168201915b5050505050815250509050919050565b6000600154905090565b60405180608001604052803373ffffffffffffffffffffffffffffffffffffffff168152602001848152602001600154815260200183838080601f016020809104026020016040519081016040528093929190818152602001838380828437600081840152601f19601f8201169050808301925050505050505081525060076000600154815260200190815260200160002060008201518160000160006101000a81548173ffffffffffffffffffffffffffffffffffffffff021916908373ffffffffffffffffffffffffffffffffffffffff1602179055506020820151816001015560408201518160020155606082015181600301908161138b9190612329565b50905050600660008481526020019081526020016000206001549080600181540180825580915050600190039060005260206000200160009091909190915055600460003373ffffffffffffffffffffffffffffffffffffffff1673ffffffffffffffffffffffffffffffffffffffff16815260200190815260200160002060015490806001815401808255809150506001900390600052602060002001600090919091909150556001600081548092919061144690611fa9565b9190505550505050565b600060056000838152602001908152602001600020600401549050919050565b6060600360003373ffffffffffffffffffffffffffffffffffffffff1673ffffffffffffffffffffffffffffffffffffffff1681526020019081526020016000208054806020026020016040519081016040528092919081815260200182805480156114fb57602002820191906000526020600020905b8154815260200190600101908083116114e7575b5050505050905090565b61150d611791565b600560008381526020019081526020016000206040518060c00160405290816000820160009054906101000a900473ffffffffffffffffffffffffffffffffffffffff1673ffffffffffffffffffffffffffffffffffffffff1673ffffffffffffffffffffffffffffffffffffffff1681526020016001820154815260200160028201805461159b90611e42565b80601f01602080910402602001604051908101604052809291908181526020018280546115c790611e42565b80156116145780601f106115e957610100808354040283529160200191611614565b820191906000526020600020905b8154815290600101906020018083116115f757829003601f168201915b505050505081526020016003820160009054906101000a900460ff16151515158152602001600482015481526020016005820154815250509050919050565b6060600460003373ffffffffffffffffffffffffffffffffffffffff1673ffffffffffffffffffffffffffffffffffffffff1681526020019081526020016000208054806020026020016040519081016040528092919081815260200182805480156116de57602002820191906000526020600020905b8154815260200190600101908083116116ca575b5050505050905090565b60606006600083815260200190815260200160002080548060200260200160405190810160405280929190818152602001828054801561174757602002820191906000526020600020905b815481526020019060010190808311611733575b50505050509050919050565b6040518060800160405280600073ffffffffffffffffffffffffffffffffffffffff1681526020016000815260200160008152602001606081525090565b6040518060c00160405280600073ffffffffffffffffffffffffffffffffffffffff168152602001600081526020016060815260200160001515815260200160008152602001600081525090565b600080fd5b600080fd5b600073ffffffffffffffffffffffffffffffffffffffff82169050919050565b6000611814826117e9565b9050919050565b61182481611809565b811461182f57600080fd5b50565b6000813590506118418161181b565b92915050565b60006020828403121561185d5761185c6117df565b5b600061186b84828501611832565b91505092915050565b600081519050919050565b600082825260208201905092915050565b60005b838110156118ae578082015181840152602081019050611893565b60008484015250505050565b6000601f19601f8301169050919050565b60006118d682611874565b6118e0818561187f565b93506118f0818560208601611890565b6118f9816118ba565b840191505092915050565b6000602082019050818103600083015261191e81846118cb565b905092915050565b6000819050919050565b61193981611926565b811461194457600080fd5b50565b60008135905061195681611930565b92915050565b600060208284031215611972576119716117df565b5b600061198084828501611947565b91505092915050565b600080604083850312156119a05761199f6117df565b5b60006119ae85828601611947565b92505060206119bf85828601611947565b9150509250929050565b60008115159050919050565b6119de816119c9565b82525050565b60006020820190506119f960008301846119d5565b92915050565b600080fd5b600080fd5b600080fd5b60008083601f840112611a2457611a236119ff565b5b8235905067ffffffffffffffff811115611a4157611a40611a04565b5b602083019150836001820283011115611a5d57611a5c611a09565b5b9250929050565b600080600060408486031215611a7d57611a7c6117df565b5b600084013567ffffffffffffffff811115611a9b57611a9a6117e4565b5b611aa786828701611a0e565b93509350506020611aba86828701611947565b9150509250925092565b60008060208385031215611adb57611ada6117df565b5b600083013567ffffffffffffffff811115611af957611af86117e4565b5b611b0585828601611a0e565b92509250509250929050565b611b1a81611926565b82525050565b6000602082019050611b356000830184611b11565b92915050565b611b4481611809565b82525050565b611b5381611926565b82525050565b600082825260208201905092915050565b6000611b7582611874565b611b7f8185611b59565b9350611b8f818560208601611890565b611b98816118ba565b840191505092915050565b6000608083016000830151611bbb6000860182611b3b565b506020830151611bce6020860182611b4a565b506040830151611be16040860182611b4a565b5060608301518482036060860152611bf98282611b6a565b9150508091505092915050565b60006020820190508181036000830152611c208184611ba3565b905092915050565b600080600060408486031215611c4157611c406117df565b5b6000611c4f86828701611947565b935050602084013567ffffffffffffffff811115611c7057611c6f6117e4565b5b611c7c86828701611a0e565b92509250509250925092565b600081519050919050565b600082825260208201905092915050565b6000819050602082019050919050565b6000611cc08383611b4a565b60208301905092915050565b6000602082019050919050565b6000611ce482611c88565b611cee8185611c93565b9350611cf983611ca4565b8060005b83811015611d2a578151611d118882611cb4565b9750611d1c83611ccc565b925050600181019050611cfd565b5085935050505092915050565b60006020820190508181036000830152611d518184611cd9565b905092915050565b611d62816119c9565b82525050565b600060c083016000830151611d806000860182611b3b565b506020830151611d936020860182611b4a565b5060408301518482036040860152611dab8282611b6a565b9150506060830151611dc06060860182611d59565b506080830151611dd36080860182611b4a565b5060a0830151611de660a0860182611b4a565b508091505092915050565b60006020820190508181036000830152611e0b8184611d68565b905092915050565b7f4e487b7100000000000000000000000000000000000000000000000000000000600052602260045260246000fd5b60006002820490506001821680611e5a57607f821691505b602082108103611e6d57611e6c611e13565b5b50919050565b7f55736572206e6f74207265676973746572656400000000000000000000000000600082015250565b6000611ea960138361187f565b9150611eb482611e73565b602082019050919050565b60006020820190508181036000830152611ed881611e9c565b9050919050565b7f4e6f742074686520617574686f72000000000000000000000000000000000000600082015250565b6000611f15600e8361187f565b9150611f2082611edf565b602082019050919050565b60006020820190508181036000830152611f4481611f08565b9050919050565b7f4e487b7100000000000000000000000000000000000000000000000000000000600052603260045260246000fd5b7f4e487b7100000000000000000000000000000000000000000000000000000000600052601160045260246000fd5b6000611fb482611926565b91507fffffffffffffffffffffffffffffffffffffffffffffffffffffffffffffffff8203611fe657611fe5611f7a565b5b600182019050919050565b7f4e6f7420616e737765726420746f207468697320716964000000000000000000600082015250565b600061202760178361187f565b915061203282611ff1565b602082019050919050565b600060208201905081810360008301526120568161201a565b9050919050565b61206681611809565b82525050565b6000604082019050612081600083018561205d565b61208e6020830184611b11565b9392505050565b61209e816119c9565b81146120a957600080fd5b50565b6000815190506120bb81612095565b92915050565b6000602082840312156120d7576120d66117df565b5b60006120e5848285016120ac565b91505092915050565b7f4e487b7100000000000000000000000000000000000000000000000000000000600052601260045260246000fd5b600061212882611926565b915061213383611926565b925082612143576121426120ee565b5b828204905092915050565b7f4e487b7100000000000000000000000000000000000000000000000000000000600052604160045260246000fd5b60008190508160005260206000209050919050565b60006020601f8301049050919050565b600082821b905092915050565b6000600883026121df7fffffffffffffffffffffffffffffffffffffffffffffffffffffffffffffffff826121a2565b6121e986836121a2565b95508019841693508086168417925050509392505050565b6000819050919050565b600061222661222161221c84611926565b612201565b611926565b9050919050565b6000819050919050565b6122408361220b565b61225461224c8261222d565b8484546121af565b825550505050565b600090565b61226961225c565b612274818484612237565b505050565b5b818110156122985761228d600082612261565b60018101905061227a565b5050565b601f8211156122dd576122ae8161217d565b6122b784612192565b810160208510156122c6578190505b6122da6122d285612192565b830182612279565b50505b505050565b600082821c905092915050565b6000612300600019846008026122e2565b1980831691505092915050565b600061231983836122ef565b9150826002028217905092915050565b61233282611874565b67ffffffffffffffff81111561234b5761234a61214e565b5b6123558254611e42565b61236082828561229c565b600060209050601f8311600181146123935760008415612381578287015190505b61238b858261230d565b8655506123f3565b601f1984166123a18661217d565b60005b828110156123c9578489015182556001820191506020850194506020810190506123a4565b868310156123e657848901516123e2601f8916826122ef565b8355505b6001600288020188555050505b505050505050565b6000606082019050612410600083018661205d565b61241d602083018561205d565b61242a6040830184611b11565b949350505050565b7f5573657220616c72656164792072656769737465726564000000000000000000600082015250565b600061246860178361187f565b915061247382612432565b602082019050919050565b600060208201905081810360008301526124978161245b565b9050919050565b6000819050919050565b60006124c36124be6124b98461249e565b612201565b611926565b9050919050565b6124d3816124a8565b82525050565b60006040820190506124ee600083018561205d565b6124fb60208301846124ca565b9392505050565b6000819050919050565b600061252761252261251d84612502565b612201565b611926565b9050919050565b6125378161250c565b82525050565b6000604082019050612552600083018561205d565b61255f602083018461252e565b939250505056fea26469706673582212201879c83b49b27934db5c7c03fe9d9f4bb6dc59f68219a8ef60a9f8ecc397e87864736f6c63430008100033",
  "linkReferences": {},
  "deployedLinkReferences": {}
}